{
	"contracts/UniqueHashStorage.sol": {
		"HashStorage": {
			"abi": [
				{
					"anonymous": false,
					"inputs": [
						{
							"indexed": true,
							"internalType": "bytes16",
							"name": "hash",
							"type": "bytes16"
						}
					],
					"name": "HashStored",
					"type": "event"
				},
				{
					"inputs": [
						{
							"internalType": "bytes16",
							"name": "_hash",
							"type": "bytes16"
						}
					],
					"name": "isHashExists",
					"outputs": [
						{
							"internalType": "bool",
							"name": "",
							"type": "bool"
						}
					],
					"stateMutability": "view",
					"type": "function"
				},
				{
					"inputs": [
						{
							"internalType": "bytes16",
							"name": "_hash",
							"type": "bytes16"
						}
					],
					"name": "storeHash",
					"outputs": [],
					"stateMutability": "nonpayable",
					"type": "function"
				}
			],
			"devdoc": {
				"kind": "dev",
				"methods": {},
				"version": 1
			},
			"evm": {
				"assembly": "    /* \"contracts/UniqueHashStorage.sol\":60:483  contract HashStorage {... */\n  mstore(0x40, 0x80)\n  callvalue\n  dup1\n  iszero\n  tag_1\n  jumpi\n  revert(0x00, 0x00)\ntag_1:\n  pop\n  dataSize(sub_0)\n  dup1\n  dataOffset(sub_0)\n  0x00\n  codecopy\n  0x00\n  return\nstop\n\nsub_0: assembly {\n        /* \"contracts/UniqueHashStorage.sol\":60:483  contract HashStorage {... */\n      mstore(0x40, 0x80)\n      callvalue\n      dup1\n      iszero\n      tag_1\n      jumpi\n      revert(0x00, 0x00)\n    tag_1:\n      pop\n      jumpi(tag_2, lt(calldatasize, 0x04))\n      shr(0xe0, calldataload(0x00))\n      dup1\n      0x51509d1e\n      eq\n      tag_3\n      jumpi\n      dup1\n      0xc7e4cb40\n      eq\n      tag_4\n      jumpi\n    tag_2:\n      revert(0x00, 0x00)\n        /* \"contracts/UniqueHashStorage.sol\":373:480  function isHashExists(bytes16 _hash) public view returns (bool) {... */\n    tag_3:\n      tag_5\n      0x04\n      dup1\n      calldatasize\n      sub\n      dup2\n      add\n      swap1\n      tag_6\n      swap2\n      swap1\n      tag_7\n      jump\t// in\n    tag_6:\n      tag_8\n      jump\t// in\n    tag_5:\n      mload(0x40)\n      tag_9\n      swap2\n      swap1\n      tag_10\n      jump\t// in\n    tag_9:\n      mload(0x40)\n      dup1\n      swap2\n      sub\n      swap1\n      return\n        /* \"contracts/UniqueHashStorage.sol\":187:365  function storeHash(bytes16 _hash) public {... */\n    tag_4:\n      tag_11\n      0x04\n      dup1\n      calldatasize\n      sub\n      dup2\n      add\n      swap1\n      tag_12\n      swap2\n      swap1\n      tag_7\n      jump\t// in\n    tag_12:\n      tag_13\n      jump\t// in\n    tag_11:\n      stop\n        /* \"contracts/UniqueHashStorage.sol\":373:480  function isHashExists(bytes16 _hash) public view returns (bool) {... */\n    tag_8:\n        /* \"contracts/UniqueHashStorage.sol\":431:435  bool */\n      0x00\n        /* \"contracts/UniqueHashStorage.sol\":455:465  hashExists */\n      0x00\n        /* \"contracts/UniqueHashStorage.sol\":455:472  hashExists[_hash] */\n      0x00\n        /* \"contracts/UniqueHashStorage.sol\":466:471  _hash */\n      dup4\n        /* \"contracts/UniqueHashStorage.sol\":455:472  hashExists[_hash] */\n      not(0xffffffffffffffffffffffffffffffff)\n      and\n      not(0xffffffffffffffffffffffffffffffff)\n      and\n      dup2\n      mstore\n      0x20\n      add\n      swap1\n      dup2\n      mstore\n      0x20\n      add\n      0x00\n      keccak256\n      0x00\n      swap1\n      sload\n      swap1\n      0x0100\n      exp\n      swap1\n      div\n      0xff\n      and\n        /* \"contracts/UniqueHashStorage.sol\":448:472  return hashExists[_hash] */\n      swap1\n      pop\n        /* \"contracts/UniqueHashStorage.sol\":373:480  function isHashExists(bytes16 _hash) public view returns (bool) {... */\n      swap2\n      swap1\n      pop\n      jump\t// out\n        /* \"contracts/UniqueHashStorage.sol\":187:365  function storeHash(bytes16 _hash) public {... */\n    tag_13:\n        /* \"contracts/UniqueHashStorage.sol\":248:258  hashExists */\n      0x00\n        /* \"contracts/UniqueHashStorage.sol\":248:265  hashExists[_hash] */\n      0x00\n        /* \"contracts/UniqueHashStorage.sol\":259:264  _hash */\n      dup3\n        /* \"contracts/UniqueHashStorage.sol\":248:265  hashExists[_hash] */\n      not(0xffffffffffffffffffffffffffffffff)\n      and\n      not(0xffffffffffffffffffffffffffffffff)\n      and\n      dup2\n      mstore\n      0x20\n      add\n      swap1\n      dup2\n      mstore\n      0x20\n      add\n      0x00\n      keccak256\n      0x00\n      swap1\n      sload\n      swap1\n      0x0100\n      exp\n      swap1\n      div\n      0xff\n      and\n        /* \"contracts/UniqueHashStorage.sol\":247:265  !hashExists[_hash] */\n      iszero\n        /* \"contracts/UniqueHashStorage.sol\":239:289  require(!hashExists[_hash], \"Hash already exists\") */\n      tag_16\n      jumpi\n      mload(0x40)\n      0x08c379a000000000000000000000000000000000000000000000000000000000\n      dup2\n      mstore\n      0x04\n      add\n      tag_17\n      swap1\n      tag_18\n      jump\t// in\n    tag_17:\n      mload(0x40)\n      dup1\n      swap2\n      sub\n      swap1\n      revert\n    tag_16:\n        /* \"contracts/UniqueHashStorage.sol\":320:324  true */\n      0x01\n        /* \"contracts/UniqueHashStorage.sol\":300:310  hashExists */\n      0x00\n        /* \"contracts/UniqueHashStorage.sol\":300:317  hashExists[_hash] */\n      0x00\n        /* \"contracts/UniqueHashStorage.sol\":311:316  _hash */\n      dup4\n        /* \"contracts/UniqueHashStorage.sol\":300:317  hashExists[_hash] */\n      not(0xffffffffffffffffffffffffffffffff)\n      and\n      not(0xffffffffffffffffffffffffffffffff)\n      and\n      dup2\n      mstore\n      0x20\n      add\n      swap1\n      dup2\n      mstore\n      0x20\n      add\n      0x00\n      keccak256\n      0x00\n        /* \"contracts/UniqueHashStorage.sol\":300:324  hashExists[_hash] = true */\n      0x0100\n      exp\n      dup2\n      sload\n      dup2\n      0xff\n      mul\n      not\n      and\n      swap1\n      dup4\n      iszero\n      iszero\n      mul\n      or\n      swap1\n      sstore\n      pop\n        /* \"contracts/UniqueHashStorage.sol\":351:356  _hash */\n      dup1\n        /* \"contracts/UniqueHashStorage.sol\":340:357  HashStored(_hash) */\n      not(0xffffffffffffffffffffffffffffffff)\n      and\n      0xded2206ae97cb3d05884eeda993a34a0230cd35169b429c4373c6673bfaa4d2b\n      mload(0x40)\n      mload(0x40)\n      dup1\n      swap2\n      sub\n      swap1\n      log2\n        /* \"contracts/UniqueHashStorage.sol\":187:365  function storeHash(bytes16 _hash) public {... */\n      pop\n      jump\t// out\n        /* \"#utility.yul\":88:205   */\n    tag_20:\n        /* \"#utility.yul\":197:198   */\n      0x00\n        /* \"#utility.yul\":194:195   */\n      0x00\n        /* \"#utility.yul\":187:199   */\n      revert\n        /* \"#utility.yul\":334:484   */\n    tag_22:\n        /* \"#utility.yul\":371:378   */\n      0x00\n        /* \"#utility.yul\":411:477   */\n      0xffffffffffffffffffffffffffffffff00000000000000000000000000000000\n        /* \"#utility.yul\":404:409   */\n      dup3\n        /* \"#utility.yul\":400:478   */\n      and\n        /* \"#utility.yul\":389:478   */\n      swap1\n      pop\n        /* \"#utility.yul\":334:484   */\n      swap2\n      swap1\n      pop\n      jump\t// out\n        /* \"#utility.yul\":490:612   */\n    tag_23:\n        /* \"#utility.yul\":563:587   */\n      tag_36\n        /* \"#utility.yul\":581:586   */\n      dup2\n        /* \"#utility.yul\":563:587   */\n      tag_22\n      jump\t// in\n    tag_36:\n        /* \"#utility.yul\":556:561   */\n      dup2\n        /* \"#utility.yul\":553:588   */\n      eq\n        /* \"#utility.yul\":543:606   */\n      tag_37\n      jumpi\n        /* \"#utility.yul\":602:603   */\n      0x00\n        /* \"#utility.yul\":599:600   */\n      0x00\n        /* \"#utility.yul\":592:604   */\n      revert\n        /* \"#utility.yul\":543:606   */\n    tag_37:\n        /* \"#utility.yul\":490:612   */\n      pop\n      jump\t// out\n        /* \"#utility.yul\":618:757   */\n    tag_24:\n        /* \"#utility.yul\":664:669   */\n      0x00\n        /* \"#utility.yul\":702:708   */\n      dup2\n        /* \"#utility.yul\":689:709   */\n      calldataload\n        /* \"#utility.yul\":680:709   */\n      swap1\n      pop\n        /* \"#utility.yul\":718:751   */\n      tag_39\n        /* \"#utility.yul\":745:750   */\n      dup2\n        /* \"#utility.yul\":718:751   */\n      tag_23\n      jump\t// in\n    tag_39:\n        /* \"#utility.yul\":618:757   */\n      swap3\n      swap2\n      pop\n      pop\n      jump\t// out\n        /* \"#utility.yul\":763:1092   */\n    tag_7:\n        /* \"#utility.yul\":822:828   */\n      0x00\n        /* \"#utility.yul\":871:873   */\n      0x20\n        /* \"#utility.yul\":859:868   */\n      dup3\n        /* \"#utility.yul\":850:857   */\n      dup5\n        /* \"#utility.yul\":846:869   */\n      sub\n        /* \"#utility.yul\":842:874   */\n      slt\n        /* \"#utility.yul\":839:958   */\n      iszero\n      tag_41\n      jumpi\n        /* \"#utility.yul\":877:956   */\n      tag_42\n      tag_20\n      jump\t// in\n    tag_42:\n        /* \"#utility.yul\":839:958   */\n    tag_41:\n        /* \"#utility.yul\":997:998   */\n      0x00\n        /* \"#utility.yul\":1022:1075   */\n      tag_43\n        /* \"#utility.yul\":1067:1074   */\n      dup5\n        /* \"#utility.yul\":1058:1064   */\n      dup3\n        /* \"#utility.yul\":1047:1056   */\n      dup6\n        /* \"#utility.yul\":1043:1065   */\n      add\n        /* \"#utility.yul\":1022:1075   */\n      tag_24\n      jump\t// in\n    tag_43:\n        /* \"#utility.yul\":1012:1075   */\n      swap2\n      pop\n        /* \"#utility.yul\":968:1085   */\n      pop\n        /* \"#utility.yul\":763:1092   */\n      swap3\n      swap2\n      pop\n      pop\n      jump\t// out\n        /* \"#utility.yul\":1098:1188   */\n    tag_25:\n        /* \"#utility.yul\":1132:1139   */\n      0x00\n        /* \"#utility.yul\":1175:1180   */\n      dup2\n        /* \"#utility.yul\":1168:1181   */\n      iszero\n        /* \"#utility.yul\":1161:1182   */\n      iszero\n        /* \"#utility.yul\":1150:1182   */\n      swap1\n      pop\n        /* \"#utility.yul\":1098:1188   */\n      swap2\n      swap1\n      pop\n      jump\t// out\n        /* \"#utility.yul\":1194:1303   */\n    tag_26:\n        /* \"#utility.yul\":1275:1296   */\n      tag_46\n        /* \"#utility.yul\":1290:1295   */\n      dup2\n        /* \"#utility.yul\":1275:1296   */\n      tag_25\n      jump\t// in\n    tag_46:\n        /* \"#utility.yul\":1270:1273   */\n      dup3\n        /* \"#utility.yul\":1263:1297   */\n      mstore\n        /* \"#utility.yul\":1194:1303   */\n      pop\n      pop\n      jump\t// out\n        /* \"#utility.yul\":1309:1519   */\n    tag_10:\n        /* \"#utility.yul\":1396:1400   */\n      0x00\n        /* \"#utility.yul\":1434:1436   */\n      0x20\n        /* \"#utility.yul\":1423:1432   */\n      dup3\n        /* \"#utility.yul\":1419:1437   */\n      add\n        /* \"#utility.yul\":1411:1437   */\n      swap1\n      pop\n        /* \"#utility.yul\":1447:1512   */\n      tag_48\n        /* \"#utility.yul\":1509:1510   */\n      0x00\n        /* \"#utility.yul\":1498:1507   */\n      dup4\n        /* \"#utility.yul\":1494:1511   */\n      add\n        /* \"#utility.yul\":1485:1491   */\n      dup5\n        /* \"#utility.yul\":1447:1512   */\n      tag_26\n      jump\t// in\n    tag_48:\n        /* \"#utility.yul\":1309:1519   */\n      swap3\n      swap2\n      pop\n      pop\n      jump\t// out\n        /* \"#utility.yul\":1525:1694   */\n    tag_27:\n        /* \"#utility.yul\":1609:1620   */\n      0x00\n        /* \"#utility.yul\":1643:1649   */\n      dup3\n        /* \"#utility.yul\":1638:1641   */\n      dup3\n        /* \"#utility.yul\":1631:1650   */\n      mstore\n        /* \"#utility.yul\":1683:1687   */\n      0x20\n        /* \"#utility.yul\":1678:1681   */\n      dup3\n        /* \"#utility.yul\":1674:1688   */\n      add\n        /* \"#utility.yul\":1659:1688   */\n      swap1\n      pop\n        /* \"#utility.yul\":1525:1694   */\n      swap3\n      swap2\n      pop\n      pop\n      jump\t// out\n        /* \"#utility.yul\":1700:1869   */\n    tag_28:\n        /* \"#utility.yul\":1840:1861   */\n      0x4861736820616c72656164792065786973747300000000000000000000000000\n        /* \"#utility.yul\":1836:1837   */\n      0x00\n        /* \"#utility.yul\":1828:1834   */\n      dup3\n        /* \"#utility.yul\":1824:1838   */\n      add\n        /* \"#utility.yul\":1817:1862   */\n      mstore\n        /* \"#utility.yul\":1700:1869   */\n      pop\n      jump\t// out\n        /* \"#utility.yul\":1875:2241   */\n    tag_29:\n        /* \"#utility.yul\":2017:2020   */\n      0x00\n        /* \"#utility.yul\":2038:2105   */\n      tag_52\n        /* \"#utility.yul\":2102:2104   */\n      0x13\n        /* \"#utility.yul\":2097:2100   */\n      dup4\n        /* \"#utility.yul\":2038:2105   */\n      tag_27\n      jump\t// in\n    tag_52:\n        /* \"#utility.yul\":2031:2105   */\n      swap2\n      pop\n        /* \"#utility.yul\":2114:2207   */\n      tag_53\n        /* \"#utility.yul\":2203:2206   */\n      dup3\n        /* \"#utility.yul\":2114:2207   */\n      tag_28\n      jump\t// in\n    tag_53:\n        /* \"#utility.yul\":2232:2234   */\n      0x20\n        /* \"#utility.yul\":2227:2230   */\n      dup3\n        /* \"#utility.yul\":2223:2235   */\n      add\n        /* \"#utility.yul\":2216:2235   */\n      swap1\n      pop\n        /* \"#utility.yul\":1875:2241   */\n      swap2\n      swap1\n      pop\n      jump\t// out\n        /* \"#utility.yul\":2247:2666   */\n    tag_18:\n        /* \"#utility.yul\":2413:2417   */\n      0x00\n        /* \"#utility.yul\":2451:2453   */\n      0x20\n        /* \"#utility.yul\":2440:2449   */\n      dup3\n        /* \"#utility.yul\":2436:2454   */\n      add\n        /* \"#utility.yul\":2428:2454   */\n      swap1\n      pop\n        /* \"#utility.yul\":2500:2509   */\n      dup2\n        /* \"#utility.yul\":2494:2498   */\n      dup2\n        /* \"#utility.yul\":2490:2510   */\n      sub\n        /* \"#utility.yul\":2486:2487   */\n      0x00\n        /* \"#utility.yul\":2475:2484   */\n      dup4\n        /* \"#utility.yul\":2471:2488   */\n      add\n        /* \"#utility.yul\":2464:2511   */\n      mstore\n        /* \"#utility.yul\":2528:2659   */\n      tag_55\n        /* \"#utility.yul\":2654:2658   */\n      dup2\n        /* \"#utility.yul\":2528:2659   */\n      tag_29\n      jump\t// in\n    tag_55:\n        /* \"#utility.yul\":2520:2659   */\n      swap1\n      pop\n        /* \"#utility.yul\":2247:2666   */\n      swap2\n      swap1\n      pop\n      jump\t// out\n\n    auxdata: 0xa264697066735822122077997d5442837aa328a37da681472eaf40d900a8b9394486e89281be3adba84464736f6c634300081c0033\n}\n",
				"bytecode": {
					"linkReferences": {},
					"object": "6080604052348015600e575f5ffd5b506103488061001c5f395ff3fe608060405234801561000f575f5ffd5b5060043610610034575f3560e01c806351509d1e14610038578063c7e4cb4014610068575b5f5ffd5b610052600480360381019061004d919061023c565b610084565b60405161005f9190610281565b60405180910390f35b610082600480360381019061007d919061023c565b6100cf565b005b5f5f5f836fffffffffffffffffffffffffffffffff19166fffffffffffffffffffffffffffffffff191681526020019081526020015f205f9054906101000a900460ff169050919050565b5f5f826fffffffffffffffffffffffffffffffff19166fffffffffffffffffffffffffffffffff191681526020019081526020015f205f9054906101000a900460ff1615610152576040517f08c379a0000000000000000000000000000000000000000000000000000000008152600401610149906102f4565b60405180910390fd5b60015f5f836fffffffffffffffffffffffffffffffff19166fffffffffffffffffffffffffffffffff191681526020019081526020015f205f6101000a81548160ff021916908315150217905550806fffffffffffffffffffffffffffffffff19167fded2206ae97cb3d05884eeda993a34a0230cd35169b429c4373c6673bfaa4d2b60405160405180910390a250565b5f5ffd5b5f7fffffffffffffffffffffffffffffffff0000000000000000000000000000000082169050919050565b61021b816101e7565b8114610225575f5ffd5b50565b5f8135905061023681610212565b92915050565b5f60208284031215610251576102506101e3565b5b5f61025e84828501610228565b91505092915050565b5f8115159050919050565b61027b81610267565b82525050565b5f6020820190506102945f830184610272565b92915050565b5f82825260208201905092915050565b7f4861736820616c726561647920657869737473000000000000000000000000005f82015250565b5f6102de60138361029a565b91506102e9826102aa565b602082019050919050565b5f6020820190508181035f83015261030b816102d2565b905091905056fea264697066735822122077997d5442837aa328a37da681472eaf40d900a8b9394486e89281be3adba84464736f6c634300081c0033",
					"opcodes": "PUSH1 0x80 PUSH1 0x40 MSTORE CALLVALUE DUP1 ISZERO PUSH1 0xE JUMPI PUSH0 PUSH0 REVERT JUMPDEST POP PUSH2 0x348 DUP1 PUSH2 0x1C PUSH0 CODECOPY PUSH0 RETURN INVALID PUSH1 0x80 PUSH1 0x40 MSTORE CALLVALUE DUP1 ISZERO PUSH2 0xF JUMPI PUSH0 PUSH0 REVERT JUMPDEST POP PUSH1 0x4 CALLDATASIZE LT PUSH2 0x34 JUMPI PUSH0 CALLDATALOAD PUSH1 0xE0 SHR DUP1 PUSH4 0x51509D1E EQ PUSH2 0x38 JUMPI DUP1 PUSH4 0xC7E4CB40 EQ PUSH2 0x68 JUMPI JUMPDEST PUSH0 PUSH0 REVERT JUMPDEST PUSH2 0x52 PUSH1 0x4 DUP1 CALLDATASIZE SUB DUP2 ADD SWAP1 PUSH2 0x4D SWAP2 SWAP1 PUSH2 0x23C JUMP JUMPDEST PUSH2 0x84 JUMP JUMPDEST PUSH1 0x40 MLOAD PUSH2 0x5F SWAP2 SWAP1 PUSH2 0x281 JUMP JUMPDEST PUSH1 0x40 MLOAD DUP1 SWAP2 SUB SWAP1 RETURN JUMPDEST PUSH2 0x82 PUSH1 0x4 DUP1 CALLDATASIZE SUB DUP2 ADD SWAP1 PUSH2 0x7D SWAP2 SWAP1 PUSH2 0x23C JUMP JUMPDEST PUSH2 0xCF JUMP JUMPDEST STOP JUMPDEST PUSH0 PUSH0 PUSH0 DUP4 PUSH16 0xFFFFFFFFFFFFFFFFFFFFFFFFFFFFFFFF NOT AND PUSH16 0xFFFFFFFFFFFFFFFFFFFFFFFFFFFFFFFF NOT AND DUP2 MSTORE PUSH1 0x20 ADD SWAP1 DUP2 MSTORE PUSH1 0x20 ADD PUSH0 KECCAK256 PUSH0 SWAP1 SLOAD SWAP1 PUSH2 0x100 EXP SWAP1 DIV PUSH1 0xFF AND SWAP1 POP SWAP2 SWAP1 POP JUMP JUMPDEST PUSH0 PUSH0 DUP3 PUSH16 0xFFFFFFFFFFFFFFFFFFFFFFFFFFFFFFFF NOT AND PUSH16 0xFFFFFFFFFFFFFFFFFFFFFFFFFFFFFFFF NOT AND DUP2 MSTORE PUSH1 0x20 ADD SWAP1 DUP2 MSTORE PUSH1 0x20 ADD PUSH0 KECCAK256 PUSH0 SWAP1 SLOAD SWAP1 PUSH2 0x100 EXP SWAP1 DIV PUSH1 0xFF AND ISZERO PUSH2 0x152 JUMPI PUSH1 0x40 MLOAD PUSH32 0x8C379A000000000000000000000000000000000000000000000000000000000 DUP2 MSTORE PUSH1 0x4 ADD PUSH2 0x149 SWAP1 PUSH2 0x2F4 JUMP JUMPDEST PUSH1 0x40 MLOAD DUP1 SWAP2 SUB SWAP1 REVERT JUMPDEST PUSH1 0x1 PUSH0 PUSH0 DUP4 PUSH16 0xFFFFFFFFFFFFFFFFFFFFFFFFFFFFFFFF NOT AND PUSH16 0xFFFFFFFFFFFFFFFFFFFFFFFFFFFFFFFF NOT AND DUP2 MSTORE PUSH1 0x20 ADD SWAP1 DUP2 MSTORE PUSH1 0x20 ADD PUSH0 KECCAK256 PUSH0 PUSH2 0x100 EXP DUP2 SLOAD DUP2 PUSH1 0xFF MUL NOT AND SWAP1 DUP4 ISZERO ISZERO MUL OR SWAP1 SSTORE POP DUP1 PUSH16 0xFFFFFFFFFFFFFFFFFFFFFFFFFFFFFFFF NOT AND PUSH32 0xDED2206AE97CB3D05884EEDA993A34A0230CD35169B429C4373C6673BFAA4D2B PUSH1 0x40 MLOAD PUSH1 0x40 MLOAD DUP1 SWAP2 SUB SWAP1 LOG2 POP JUMP JUMPDEST PUSH0 PUSH0 REVERT JUMPDEST PUSH0 PUSH32 0xFFFFFFFFFFFFFFFFFFFFFFFFFFFFFFFF00000000000000000000000000000000 DUP3 AND SWAP1 POP SWAP2 SWAP1 POP JUMP JUMPDEST PUSH2 0x21B DUP2 PUSH2 0x1E7 JUMP JUMPDEST DUP2 EQ PUSH2 0x225 JUMPI PUSH0 PUSH0 REVERT JUMPDEST POP JUMP JUMPDEST PUSH0 DUP2 CALLDATALOAD SWAP1 POP PUSH2 0x236 DUP2 PUSH2 0x212 JUMP JUMPDEST SWAP3 SWAP2 POP POP JUMP JUMPDEST PUSH0 PUSH1 0x20 DUP3 DUP5 SUB SLT ISZERO PUSH2 0x251 JUMPI PUSH2 0x250 PUSH2 0x1E3 JUMP JUMPDEST JUMPDEST PUSH0 PUSH2 0x25E DUP5 DUP3 DUP6 ADD PUSH2 0x228 JUMP JUMPDEST SWAP2 POP POP SWAP3 SWAP2 POP POP JUMP JUMPDEST PUSH0 DUP2 ISZERO ISZERO SWAP1 POP SWAP2 SWAP1 POP JUMP JUMPDEST PUSH2 0x27B DUP2 PUSH2 0x267 JUMP JUMPDEST DUP3 MSTORE POP POP JUMP JUMPDEST PUSH0 PUSH1 0x20 DUP3 ADD SWAP1 POP PUSH2 0x294 PUSH0 DUP4 ADD DUP5 PUSH2 0x272 JUMP JUMPDEST SWAP3 SWAP2 POP POP JUMP JUMPDEST PUSH0 DUP3 DUP3 MSTORE PUSH1 0x20 DUP3 ADD SWAP1 POP SWAP3 SWAP2 POP POP JUMP JUMPDEST PUSH32 0x4861736820616C72656164792065786973747300000000000000000000000000 PUSH0 DUP3 ADD MSTORE POP JUMP JUMPDEST PUSH0 PUSH2 0x2DE PUSH1 0x13 DUP4 PUSH2 0x29A JUMP JUMPDEST SWAP2 POP PUSH2 0x2E9 DUP3 PUSH2 0x2AA JUMP JUMPDEST PUSH1 0x20 DUP3 ADD SWAP1 POP SWAP2 SWAP1 POP JUMP JUMPDEST PUSH0 PUSH1 0x20 DUP3 ADD SWAP1 POP DUP2 DUP2 SUB PUSH0 DUP4 ADD MSTORE PUSH2 0x30B DUP2 PUSH2 0x2D2 JUMP JUMPDEST SWAP1 POP SWAP2 SWAP1 POP JUMP INVALID LOG2 PUSH5 0x6970667358 0x22 SLT KECCAK256 PUSH24 0x997D5442837AA328A37DA681472EAF40D900A8B9394486E8 SWAP3 DUP2 0xBE GASPRICE 0xDB 0xA8 PREVRANDAO PUSH5 0x736F6C6343 STOP ADDMOD SHR STOP CALLER "
				},
				"gasEstimates": {
					"creation": {
						"codeDepositCost": "168000",
						"executionCost": "212",
						"totalCost": "168212"
					},
					"external": {
						"isHashExists(bytes16)": "2811",
						"storeHash(bytes16)": "28178"
					}
				},
				"methodIdentifiers": {
					"isHashExists(bytes16)": "51509d1e",
					"storeHash(bytes16)": "c7e4cb40"
				}
			},
			"storageLayout": {
				"storage": [
					{
						"astId": 5,
						"contract": "contracts/UniqueHashStorage.sol:HashStorage",
						"label": "hashExists",
						"offset": 0,
						"slot": "0",
						"type": "t_mapping(t_bytes16,t_bool)"
					}
				],
				"types": {
					"t_bool": {
						"encoding": "inplace",
						"label": "bool",
						"numberOfBytes": "1"
					},
					"t_bytes16": {
						"encoding": "inplace",
						"label": "bytes16",
						"numberOfBytes": "16"
					},
					"t_mapping(t_bytes16,t_bool)": {
						"encoding": "mapping",
						"key": "t_bytes16",
						"label": "mapping(bytes16 => bool)",
						"numberOfBytes": "32",
						"value": "t_bool"
					}
				}
			},
			"userdoc": {
				"kind": "user",
				"methods": {},
				"version": 1
			}
		}
	}
}